:100000000C9462000C948A000C948A000C948A0070
:100010000C948A000C948A000C948A000C948A0038
:100020000C948A000C948A000C948A000C948A0028
:100030000C948A000C948A000C948A000C948A0018
:100040000C94E7020C948A000C9457030C9431032F
:100050000C948A000C948A000C948A000C948A00F8
:100060000C948A000C948A000000000023002600F3
:10007000290000000000240027002A0000000000E2
:10008000250028002B0004040404040404040202D4
:100090000202020203030303030301020408102007
:1000A0004080010204081020010204081020000012
:1000B0000008000201000003040700000000000027
:1000C00000009A0511241FBECFEFD8E0DEBFCDBFE0
:1000D00012E0A0E0B1E0EEE4F1E102C005900D9283
:1000E000A039B107D9F727E0A0E9B2E001C01D921D
:1000F000A633B207E1F710E0C2E6D0E004C02197D2
:10010000FE010E94C705C136D107C9F70E948903C5
:100110000C94A5080C940000833081F028F4813001
:1001200099F08230A9F008958730A9F08830C9F09D
:100130008430B1F4809180008F7D03C08091800075
:100140008F7780938000089584B58F7784BD08955C
:1001500084B58F7DFBCF8091B0008F778093B00006
:1001600008958091B0008F7DF9CF1F93CF93DF93D7
:10017000282F30E0F901E255FF4F8491F901E6564E
:10018000FF4FD491F901EA57FF4FC491CC23A9F056
:10019000162F81110E948C00EC2FF0E0EE0FFF1F54
:1001A000E458FF4FA591B4918FB7F894EC911111D9
:1001B00008C0D095DE23DC938FBFDF91CF911F91D4
:1001C0000895DE2BF8CFCF93DF9390E0FC01E65645
:1001D000FF4F24918A579F4FFC0184918823D1F0CF
:1001E00090E0880F991FFC01EE58FF4FA591B49144
:1001F000FC01E458FF4FC591D49161110EC09FB727
:10020000F8948C91E22FE0958E238C932881E22341
:10021000E8839FBFDF91CF9108958FB7F894EC9159
:10022000E22BEC938FBFF6CF3FB7F8948091950601
:1002300090919606A0919706B091980626B5A89B36
:1002400005C02F3F19F00196A11DB11D3FBFBA2F68
:10025000A92F982F8827BC01CD01620F711D811D28
:10026000911D42E0660F771F881F991F4A95D1F7AD
:1002700008958F929F92AF92BF92CF92DF92EF92AA
:10028000FF924B015C010E9414016B017C010E94F2
:1002900014016C197D098E099F09683E7340810520
:1002A0009105A8F321E0821A9108A108B10888EE0F
:1002B000C80E83E0D81EE11CF11C81149104A10436
:1002C000B10429F7FF90EF90DF90CF90BF90AF90EF
:1002D0009F908F900895AF92BF92CF92DF92EF924E
:1002E000FF920F931F93CF93DF936C017B018B01E0
:1002F000040F151FEB015E01AE18BF08C017D10730
:1003000059F06991D601ED91FC910190F081E02DB9
:10031000C6010995892B79F7C501DF91CF911F910E
:100320000F91FF90EF90DF90CF90BF90AF90089526
:10033000FC01538D448D252F30E0842F90E0821BEB
:10034000930B541710F0CF96089501970895FC0170
:10035000918D828D981761F0A28DAE0FBF2FB11DC8
:100360005D968C91928D9F5F9F73928F90E0089520
:100370008FEF9FEF0895FC01918D828D981731F0DA
:10038000828DE80FF11D858D90E008958FEF9FEF2E
:100390000895FC01918D228D892F90E0805C9F4F04
:1003A000821B91098F739927089589E996E00E942D
:1003B000C90121E0892B09F420E0822F089580E013
:1003C00090E0892B29F00E94D50181110C94000046
:1003D0000895FC01A48DA80FB92FB11DA35ABF4FDA
:1003E0002C91848D90E001968F739927848FA68934
:1003F000B7892C93A089B1898C91837080648C9388
:10040000938D848D981306C00288F389E02D808136
:100410008F7D80830895EF92FF920F931F93CF9368
:10042000DF93EC0181E0888F9B8D8C8D98131AC02F
:10043000E889F989808185FF15C09FB7F894EE8916
:10044000FF896083E889F989808183708064808373
:100450009FBF81E090E0DF91CF911F910F91FF90BE
:10046000EF900895F62E0B8D10E00F5F1F4F0F7366
:100470001127E02E8C8D8E110CC00FB607FCFACF21
:10048000E889F989808185FFF5CFCE010E94E901D5
:10049000F1CFEB8DEC0FFD2FF11DE35AFF4FF082F2
:1004A0009FB7F8940B8FEA89FB8980818062CFCF58
:1004B000CF93DF93EC01888D8823B9F0AA89BB899B
:1004C000E889F9898C9185FD03C0808186FD0DC086
:1004D0000FB607FCF7CF8C9185FFF2CF808185FFA7
:1004E000EDCFCE010E94E901E9CFDF91CF910895D0
:1004F000CF93DF93D82FC8E06D2F661F6627661F46
:1005000082E00E94B500DD0F61E083E00E94B5004B
:1005100060E083E00E94B500C15071F7DF91CF9198
:100520000895CF93C82F80E8611180E0892B0E9445
:1005300078028C2F0E94780260E084E00E94B5006F
:1005400061E084E00E94B50060E084E0CF910C940B
:10055000B500CF93DF93D62F60E00E949102C5E0F3
:1005600061E08C2F0E94E300CF5FCD30C9F7C5E07A
:100570006D2F61708C2F0E94B500D695CF5FCD3066
:10058000B9F760E08DE00E94B50061E08DE00E9467
:10059000B5006AE070E080E090E00E943901C5E0BB
:1005A00060E08C2F0E94E300CF5FCD30C9F7DF9170
:1005B000CF910895FC0101900020E9F73197AF0138
:1005C000481B590BBC0189E996E00C946B011F9202
:1005D0000F920FB60F9211242F933F938F939F93F7
:1005E000AF93BF938091910690919206A09193064C
:1005F000B09194063091900623E0230F2D3758F5E3
:100600000196A11DB11D20939006809391069093B1
:100610009206A0939306B0939406809195069091CC
:100620009606A0919706B09198060196A11DB11D5E
:100630008093950690939606A0939706B09398069C
:10064000BF91AF919F918F913F912F910F900FBECE
:100650000F901F90189526E8230F0296A11DB11D3B
:10066000D2CF1F920F920FB60F9211242F933F9368
:100670004F935F936F937F938F939F93AF93BF93AA
:10068000EF93FF9389E996E00E94E901FF91EF91D2
:10069000BF91AF919F918F917F916F915F914F919A
:1006A0003F912F910F900FBE0F901F9018951F92A2
:1006B0000F920FB60F9211242F938F939F93EF9366
:1006C000FF93E091A906F091AA068081E091AF0620
:1006D000F091B00682FD1BC090818091B2068F5FC1
:1006E0008F732091B306821741F0E091B206F0E0DB
:1006F000E756F94F958F8093B206FF91EF919F9146
:100700008F912F910F900FBE0F901F9018958081A1
:10071000F4CFCF93DF93CDB7DEB7C156D1090FB673
:10072000F894DEBF0FBECDBF789484B5826084BDDF
:1007300084B5816084BD85B5826085BD85B58160E5
:1007400085BD80916E00816080936E001092810063
:10075000809181008260809381008091810081601E
:1007600080938100809180008160809380008091DF
:10077000B10084608093B1008091B000816080936B
:10078000B00080917A00846080937A0080917A0032
:10079000826080937A0080917A00816080937A00F1
:1007A00080917A00806880937A001092C10080E086
:1007B000E2E1F1E0A0E9B2E001900D928A95E1F763
:1007C00080E0E2E1F1E0A0E9B3E001900D928A95CA
:1007D000E1F744E050E4509305044093040422E020
:1007E00030E1309307042093060480E094E0909376
:1007F00009048093080460E0E2E1F1E0A0E9B4E0DC
:1008000001900D926A95E1F75093150540931405F8
:1008100030931705209316059093190580931805BA
:1008200060E0E2E1F1E0A0E9B5E001900D926A95A7
:10083000E1F7509305064093040650931506409344
:10084000140630930706209306063093170620936C
:1008500016069093090680930806909319068093D4
:10086000180661E082E00E94E30061E083E00E94FC
:10087000E30061E084E00E94E30061E08DE00E941B
:10088000B50061E08DE00E94E30061E08DE00E9430
:10089000E300E091A906F091AA0682E08083E0914E
:1008A000A906F091AA061082E091A506F091A6068D
:1008B0001082E091A706F091A80680E18083109253
:1008C000B106E091AD06F091AE0686E08083E0913E
:1008D000AB06F091AC06808180618083E091AB062D
:1008E000F091AC06808188608083E091AB06F09146
:1008F000AC06808180688083E091AB06F091AC0605
:1009000080818F7D808382E192E00E94DA0210E094
:1009100000E060E0C8010E94A902C8018F73992716
:10092000892B21F48DE892E00E94DA020F5F1F4FBD
:10093000011528E0120769F781E292E00E94DA02CD
:1009400010E000E0E12FFF27E7FDFA95C80143E042
:10095000959587954A95E1F78F70992754E0EE0FAA
:10096000FF1F5A95E1F7E80FF91F63E0EE0FFF1F35
:100970006A95E1F7C80187709927E80FF91FEE0F14
:10098000FF1FE057FD4F6081818107FFD1C0C80183
:100990000E94A902C8018F739927892B21F48DE841
:1009A00092E00E94DA020F5F1F4F011584E01807E2
:1009B00049F681E292E00E94DA028E010F5A1F4F3F
:1009C00088249924801A910AD12CC12C280190E105
:1009D000490E511CFE0131963F0158017401EA0C89
:1009E000FB1C25E0322E60E0832D0E94E30033944F
:1009F000FDE03F12F8CF61E0C7010E94910280E064
:100A00009CE0E92EF12C880FA2968FAFA297F701F8
:100A1000E255FF4F8491F701E656FF4F2490F7010E
:100A2000EA57FF4F3490332079F081110E948C00F7
:100A3000E32DF0E0EE0FFF1FE859FF4FA591B491B1
:100A4000EC912E2281E009F480E0A2962FADA297CE
:100A5000820F91E0E91AF108E4E0EE16F10499F64C
:100A6000F50181935F014E165F0609F0B7CFF801DB
:100A700087851F928F9386851F928F9385851F92FE
:100A80008F9384851F928F9383851F928F93828586
:100A90001F928F9381851F928F9380851F928F93D2
:100AA00087811F928F9386811F928F9385811F92DA
:100AB0008F9384811F928F9383811F928F93828162
:100AC0001F928F9381811F928F9380811F928F93AA
:100AD000DF92CF9289E292E09F938F937F926F9201
:100AE0000E94CD050FB6F894DEBF0FBECDBFC30187
:100AF0000E94DA0283E892E00E94DA0290E1C90ED5
:100B0000D11CE0E18E0E911CC114F1E0DF0609F06A
:100B100064CF86E892E00E94DA0283E892E00E94C5
:100B2000DA0264E670E080E090E00E943901F9CFDB
:100B3000682F2DCFE9E9F6E01382128288EE93E068
:100B4000A0E0B0E084839583A683B78384E091E03E
:100B50009183808385EC90E09587848784EC90E096
:100B60009787868780EC90E0918B808B81EC90E07A
:100B7000938B828B82EC90E0958B848B86EC90E05B
:100B8000978B868B118E128E138E148E0895EE0F16
:100B9000FF1F0590F491E02D0994AEE0B0E0E3ED85
:100BA000F5E00C947C080D891E8986E08C831A83FD
:100BB00009838FEF9FE79E838D83AE01475E5F4F72
:100BC0006F89788DCE0101960E94F0052F813885BE
:100BD000020F131FF80110822E96E4E00C9498087F
:100BE000ABE0B0E0E6EFF5E00C946E087C013B0171
:100BF0008A01FC0117821682838181FFC8C1CE0160
:100C000001965C01F7019381F30193FD859193FFB8
:100C100081913F01882309F453C1853239F493FD52
:100C2000859193FF81913F01853229F4B70190E0CE
:100C30000E94E007E7CF912C212C312CFFE1F31526
:100C400038F08B3211F190F4803209F1833229F1BE
:100C500037FC3CC020ED280F2A3050F536FE20C06E
:100C60008AE0989E200D1124922E06C08D3291F0BC
:100C7000803371F7689430F8F30193FD859193FF09
:100C800081913F018111DACF21C0689431F86894D5
:100C900032F8F2CF689433F8EFCF689434F8ECCFA1
:100CA000EAE02E9E200D1124222E689435F8E4CF20
:100CB0008E3229F436FC04C1689436F8DDCF8C36C8
:100CC00019F4689437F8D8CF8836B1F2982F9F7D01
:100CD00095549330E0F08336A1F18337C1F1833529
:100CE00009F063C02801F2E04F0E511CF801C080EA
:100CF000D180692D70E036FC02C06FEF7FEFC60136
:100D00000E94CA074C01689437F882010AC00C5F40
:100D10001F4FFFE3F98388248394912C6501E894A5
:100D200037F833FE2DC0522C8114910471F55520F3
:100D300009F468CFB70180E290E00E94E0075A947E
:100D4000F6CFF801808189830E5F1F4FE4CF280121
:100D5000F2E04F0E511CF801C080D180692D70E087
:100D600036FC02C06FEF7FEFC6010E94D5074C0131
:100D70008201D5CFB70180E290E00E94E0072A947B
:100D80002814190409F0B0F7CECFF60137FC85918D
:100D900037FE81916F01B70190E00E94E00751108A
:100DA0005A94F1E08F1A9108BFCF843619F0893632
:100DB00009F077C0F80137FE6BC0608171818281D4
:100DC00093810C5F1F4FF32DFF763F2E97FF09C0D5
:100DD00090958095709561957F4F8F4F9F4F689448
:100DE00037F82AE030E0A5010E941008C82ECA1882
:100DF0008C2C432C36FE0CC0E89440F8C91440F407
:100E000034FE05C032FC03C0F32DFE7E4F2E892C2C
:100E100044FE95C0FE01EC0DF11D8081803309F088
:100E200087C0242D297E422E842D8870582E43FCA5
:100E300095C040FE8FC09C2C821418F42C0C922C70
:100E4000981844FE91C0B70180E390E00E94E0074B
:100E500042FE09C088E790E041FE02C088E590E0CC
:100E6000B7010E94E007C91408F48AC0CA94D12CC3
:100E70009FEFC91AD90ACA0CDB1CF60182916F01D7
:100E8000B70190E00E94E007AC14BD04B1F74FCF6A
:100E900060817181072E000C880B990B0E5F1F4F2C
:100EA00092CFD32CE894D4F82AE030E0853739F19A
:100EB000232D297FD22E8F3601F148F48835A9F0F1
:100EC000F701868197812B96E2E10C948A0880379E
:100ED00049F08837A9F7D4FE02C06894D2F820E11F
:100EE00030E00DC06894D4F8F6CF34FE03C0822FF2
:100EF0008660D82E20E132E002C028E030E0F80120
:100F0000D7FE0FC060817181828193810C5F1F4F7A
:100F1000A5010E941008C82ECA183D2CE89437F885
:100F200067CF6081718190E080E00E5F1F4FF0CF4E
:100F300042FC02C0839478CF8394839475CF842D30
:100F4000867809F471CFF6CFB70180E290E00E9475
:100F5000E00783948214C0F3512C73CF522C58189D
:100F6000821408F46ECFF8CF842D867809F47BCFF5
:100F70008BE241FE80E247FC8DE2B70190E071CF49
:100F8000B70180E390E00E94E0079A946CCF8FEF66
:100F90009FEF99CFFC010590615070400110D8F788
:100FA000809590958E0F9F1F0895FC0161507040B1
:100FB00001900110D8F7809590958E0F9F1F08958E
:100FC0000F931F93CF93DF93182F092FEB018B8182
:100FD00081FD09C01FEF0FEF812F902FDF91CF917F
:100FE0001F910F91089582FF14C02E813F818C8143
:100FF0009D81281739073CF4E881F981CF010196DA
:101000009983888310838E819F8101969F838E832D
:10101000E3CFE885F985812F0995892BA1F3DACFF4
:10102000FA01AA27283051F1203181F1E8946F9319
:101030006E7F6E5F7F4F8F4F9F4FAF4FB1E03ED0BF
:10104000B4E03CD0670F781F891F9A1FA11D680F5D
:10105000791F8A1F911DA11D6A0F711D811D911D90
:10106000A11D20D009F468943F912AE0269F112405
:101070003019305D3193DEF6CF010895462F477069
:10108000405D4193B3E00FD0C9F7F6CF462F4F70C4
:10109000405D4A3318F0495D31FD4052419302D022
:1010A000A9F7EACFB4E0A6959795879577956795C8
:1010B000BA95C9F700976105710508959B01AC01C8
:1010C0000A2E06945795479537952795BA95C9F7EF
:1010D000620F731F841F951FA01D08952F923F92CA
:1010E0004F925F926F927F928F929F92AF92BF9238
:1010F000CF92DF92EF92FF920F931F93CF93DF93E4
:10110000CDB7DEB7CA1BDB0B0FB6F894DEBF0FBE40
:10111000CDBF09942A88398848885F846E847D848D
:101120008C849B84AA84B984C884DF80EE80FD808F
:101130000C811B81AA81B981CE0FD11D0FB6F89405
:0E114000DEBF0FBECDBFED010895F894FFCFC6
:10114E00000000000B026B0198015802C901A701B3
:10115E00BB0104400818000400000000000000005D
:10116E00000004400818044008500012000400005B
:10117E0000000440081804400850201081020004AA
:10118E00000004400818044008502010C10200045A
:10119E00000004400818044008500021000400001C
:1011AE00000004400818044008120004000000006B
:1011BE000000044008180440021000040000000063
:1011CE0000000440081808000004000000000000A1
:1011DE000000044008180800000400000000000091
:1011EE000000044008180004000000000000000089
:1011FE000000044008180004000000000000000079
:10120E000000044008180004000000000000000068
:10121E000000044008180004000000000000000058
:10122E000000044008180004000000000000000048
:10123E000000044008181001000400000000000027
:10124E0000000440081800800000000000000000AC
:10125E00000045726173696E6720454550524F4DCF
:10126E000020646F6E652E0A00253033783A2025F3
:10127E0030327820253032782025303278202530D3
:10128E0032782020253032782025303278202530D3
:10129E0032782025303278202020253032782025D3
:1012AE0030327820253032782025303278202025B3
:1012BE003032782025303278202530327820253093
:1012CE003278000D0A0045786974696E672E000049
:00000001FF
