:100000000C945D000C9485000C9485000C94850084
:100010000C9485000C9485000C9485000C9485004C
:100020000C9485000C9485000C9485000C9485003C
:100030000C9485000C9485000C9485000C9485002C
:100040000C94A7020C9485000C9417030C94F102F5
:100050000C9485000C9485000C9485000C9485000C
:100060000C9485000C94850000000008000201003B
:100070000003040700000000000000000000000072
:10008000250028002B0000000000240027002A0083
:10009000040404040404040402020202020203032E
:1000A0000303030301020408102040800102040836
:1000B0001020010204081020E70411241FBECFEF16
:1000C000D8E0DEBFCDBF11E0A0E0B1E0ECE7FAE0A0
:1000D00002C005900D92A835B107D9F721E0A8E537
:1000E000B1E001C01D92AE3FB207E1F710E0CDE5EF
:1000F000D0E004C02197FE010E943605CC35D1071F
:10010000C9F70E9449030C943C050C94000090E050
:10011000FC01EC55FF4F249180579F4FFC018491C7
:10012000882399F090E0880F991FFC01EA57FF4F50
:10013000A591B491FC01E458FF4F859194918FB73C
:10014000F894EC91E22BEC938FBF089590E0FC01C2
:10015000E859FF4F2491FC01EC55FF4F3491FC010D
:10016000E057FF4FE491EE23C9F0222339F023300A
:1001700001F1A8F4213019F1223029F1F0E0EE0F5D
:10018000FF1FE458FF4FA591B4918FB7F894EC91FD
:10019000611126C030953E233C938FBF08952730D0
:1001A000A9F02830C9F0243049F7809180008F7D74
:1001B00003C0809180008F7780938000DFCF84B56B
:1001C0008F7784BDDBCF84B58F7DFBCF8091B0006E
:1001D0008F778093B000D2CF8091B0008F7DF9CF20
:1001E0003E2BDACF3FB7F89480915D0190915E018C
:1001F000A0915F01B091600126B5A89B05C02F3F7B
:1002000019F00196A11DB11D3FBFBA2FA92F982F3C
:100210008827BC01CD01620F711D811D911D42E037
:10022000660F771F881F991F4A95D1F708958F92FF
:100230009F92AF92BF92CF92DF92EF92FF924B01CB
:100240005C010E94F2006B017C010E94F2006C19BB
:100250007D098E099F09683E734081059105A8F3C9
:1002600021E0821A9108A108B10888EEC80E83E047
:10027000D81EE11CF11C81149104A104B10429F7DA
:10028000FF90EF90DF90CF90BF90AF909F908F90B6
:100290000895AF92BF92CF92DF92EF92FF920F93A9
:1002A0001F93CF93DF936C017B018B01040F151F0C
:1002B000EB015E01AE18BF08C017D10759F0699174
:1002C000D601ED91FC910190F081E02DC6010995D8
:1002D000892B79F7C501DF91CF911F910F91FF9085
:1002E000EF90DF90CF90BF90AF900895FC01538DB9
:1002F000448D252F30E0842F90E0821B930B541700
:1003000010F0CF96089501970895FC01918D828D8C
:10031000981761F0A28DAE0FBF2FB11D5D968C9125
:10032000928D9F5F9F73928F90E008958FEF9FEF64
:100330000895FC01918D828D981731F0828DE80F20
:10034000F11D858D90E008958FEF9FEF0895FC01DA
:10035000918D228D892F90E0805C9F4F821B9109A7
:100360008F739927089581E691E00E94A70121E00B
:10037000892B09F420E0822F089580E090E0892BFA
:1003800029F00E94B30181110C9400000895FC0132
:10039000A48DA80FB92FB11DA35ABF4F2C91848DE6
:1003A00090E001968F739927848FA689B7892C9343
:1003B000A089B1898C91837080648C93938D848D96
:1003C000981306C00288F389E02D80818F7D808399
:1003D0000895EF92FF920F931F93CF93DF93EC0159
:1003E00081E0888F9B8D8C8D98131AC0E889F989DC
:1003F000808185FF15C09FB7F894EE89FF896083DF
:10040000E889F98980818370806480839FBF81E05F
:1004100090E0DF91CF911F910F91FF90EF900895A1
:10042000F62E0B8D10E00F5F1F4F0F731127E02E7C
:100430008C8D8E110CC00FB607FCFACFE889F989B4
:10044000808185FFF5CFCE010E94C701F1CFEB8DF2
:10045000EC0FFD2FF11DE35AFF4FF0829FB7F89488
:100460000B8FEA89FB8980818062CFCFCF93DF93A6
:10047000EC01888D8823B9F0AA89BB89E889F989BC
:100480008C9185FD03C0808186FD0DC00FB607FCF1
:10049000F7CF8C9185FFF2CF808185FFEDCFCE0124
:1004A0000E94C701E9CFDF91CF910895FC0101902F
:1004B0000020E9F73197AF01481B590BBC0181E6D9
:1004C00091E00C9449018F929F92AF92BF920F934B
:1004D0001F93CF93DF93CDB7DEB7A1970FB6F894F4
:1004E000DEBF0FBECDBF19A2423008F44AE08E0134
:1004F0000F5D1F4F842E912CB12CA12CA5019401CE
:100500000E941405E62FB901CA01EA30F4F4E05D57
:10051000D801EE938D01232B242B252B79F790E026
:1005200080E0109719F0CD010E945602A1960FB6F7
:10053000F894DEBF0FBECDBFDF91CF911F910F9119
:10054000BF90AF909F908F900895E95CE1CF1F928C
:100550000F920FB60F9211242F933F938F939F9377
:10056000AF93BF938091590190915A01A0915B0183
:10057000B0915C013091580123E0230F2D3758F5DD
:100580000196A11DB11D20935801809359019093AC
:100590005A01A0935B01B0935C0180915D01909141
:1005A0005E01A0915F01B09160010196A11DB11D96
:1005B00080935D0190935E01A0935F01B093600111
:1005C000BF91AF919F918F913F912F910F900FBE4F
:1005D0000F901F90189526E8230F0296A11DB11DBC
:1005E000D2CF1F920F920FB60F9211242F933F93E9
:1005F0004F935F936F937F938F939F93AF93BF932B
:10060000EF93FF9381E691E00E94C701FF91EF9184
:10061000BF91AF919F918F917F916F915F914F911A
:100620003F912F910F900FBE0F901F9018951F9222
:100630000F920FB60F9211242F938F939F93EF93E6
:10064000FF93E0917101F09172018081E091770157
:10065000F091780182FD1BC0908180917A018F5FBB
:100660008F7320917B01821741F0E0917A01F0E0D5
:10067000EF59FE4F958F80937A01FF91EF919F91F3
:100680008F912F910F900FBE0F901F901895808122
:10069000F4CF789484B5826084BD84B5816084BDD4
:1006A00085B5826085BD85B5816085BD80916E0010
:1006B000816080936E001092810080918100826041
:1006C000809381008091810081608093810080917E
:1006D00080008160809380008091B100846080936D
:1006E000B1008091B00081608093B00080917A0069
:1006F000846080937A0080917A00826080937A008F
:1007000080917A00816080937A0080917A0080687D
:1007100080937A001092C100E0917101F091720112
:1007200082E08083E0917101F09172011082E0918A
:100730006D01F0916E011082E0916F01F0917001F6
:1007400080E1808310927901E0917501F09176014A
:1007500086E08083E0917301F09174018081806173
:100760008083E0917301F0917401808188608083BF
:10077000E0917301F0917401808180688083E09141
:100780007301F091740180818F7D80838DE00E94E0
:10079000870060E08DE00E94A60061E08DE00E948D
:1007A000A6008DE00E94870060E082E00E94A60023
:1007B00060E083E00E94A60060E084E00E94A60062
:1007C00060E085E00E94A60060E086E00E94A6004E
:1007D00060E087E00E94A60060E088E00E94A6003A
:1007E00060E089E00E94A60082E00E94870083E02A
:1007F0000E94870084E00E94870085E00E948700B5
:1008000086E00E94870087E00E94870088E00E94BF
:10081000870089E00E9487008EE00E9487008FE0B9
:100820000E94870080E10E94870081E10E9487008A
:1008300002E111E0C12CD12C760182E291E00E940C
:10084000560240E1C701B6010E94630286E391E0CF
:100850000E9456026C2D61708EE00E94A600B601C7
:100860007595679561708FE00E94A600B601759539
:10087000679575956795617080E10E94A600B60145
:1008800023E0759567952A95E1F781E10E94A6001E
:1008900068EC70E080E090E00E94170189E391E04D
:1008A0000E945602F801B1908F016B2D70E090E02C
:1008B00080E042E00E94630286E391E00E945602DB
:1008C0006B2D617082E00E94A600CB2DD0E0BE01AE
:1008D00075956795617083E00E94A600BE017595CD
:1008E000679575956795617084E00E94A600BE01CA
:1008F00053E0759567955A95E1F7617085E00E9420
:10090000A600BE01E4E075956795EA95E1F7617090
:1009100086E00E94A600BE01F5E075956795FA9500
:10092000E1F7617087E00E94A600A6E0D595C79523
:10093000AA95E1F76C2F617088E00E94A6006B2DEC
:10094000661F6627661F89E00E94A60068EC70E0BB
:1009500080E090E00E94170186E491E00E94560238
:1009600086E391E00E94560260E08DE00E94A600BE
:100970006AE070E080E090E00E94170161E08DE0A5
:100980000E94A6006AE070E080E090E00E941701FB
:10099000FFEFCF1ADF0AEF0AFF0A80E1C816D10481
:1009A000E104F10409F049CF81E591E00E9456028B
:1009B00086E391E00E945602C0E0D0E02097F1F378
:1009C0000E94B3018823D1F30E940000F7CFE1E633
:1009D000F1E01382128288EE93E0A0E0B0E084831D
:1009E0009583A683B78384E091E09183808385EC2F
:1009F00090E09587848784EC90E09787868780ECE9
:100A000090E0918B808B81EC90E0938B828B82ECD9
:100A100090E0958B848B86EC90E0978B868B118E83
:100A2000128E138E148E0895A1E21A2EAA1BBB1BE0
:100A3000FD010DC0AA1FBB1FEE1FFF1FA217B307AA
:100A4000E407F50720F0A21BB30BE40BF50B661FC0
:100A5000771F881F991F1A9469F760957095809584
:100A600090959B01AC01BD01CF010895EE0FFF1FD2
:0C0A70000590F491E02D0994F894FFCF5C
:100A7C0000000000E901490176013602A701850159
:100A8C0099011E2FE0F000000000000000000000A3
:100A9C00050553657474696E6720616464726573CF
:100AAC007320746F20000D0A0053657474696E67AF
:100ABC0020646174610057726974696E672E2E2E02
:080ACC0000446F6E652E00006E
:00000001FF
